{
  "_format": "hh-sol-artifact-1",
  "contractName": "Drop",
  "sourceName": "contracts/Drop.sol",
  "abi": [
    {
      "inputs": [
        {
          "internalType": "string",
          "name": "name",
          "type": "string"
        },
        {
          "internalType": "string",
          "name": "symbol",
          "type": "string"
        },
        {
          "internalType": "uint256",
          "name": "maxSupply",
          "type": "uint256"
        },
        {
          "internalType": "string",
          "name": "description",
          "type": "string"
        },
        {
          "internalType": "string",
          "name": "prompt",
          "type": "string"
        },
        {
          "internalType": "string",
          "name": "image",
          "type": "string"
        },
        {
          "internalType": "uint256",
          "name": "maxMintPerAddress",
          "type": "uint256"
        },
        {
          "internalType": "uint256",
          "name": "royaltyPercentage",
          "type": "uint256"
        },
        {
          "internalType": "address payable",
          "name": "royaltyAddress",
          "type": "address"
        },
        {
          "internalType": "uint256",
          "name": "mintPrice",
          "type": "uint256"
        }
      ],
      "stateMutability": "nonpayable",
      "type": "constructor"
    },
    {
      "anonymous": false,
      "inputs": [
        {
          "indexed": true,
          "internalType": "address",
          "name": "owner",
          "type": "address"
        },
        {
          "indexed": true,
          "internalType": "address",
          "name": "approved",
          "type": "address"
        },
        {
          "indexed": true,
          "internalType": "uint256",
          "name": "tokenId",
          "type": "uint256"
        }
      ],
      "name": "Approval",
      "type": "event"
    },
    {
      "anonymous": false,
      "inputs": [
        {
          "indexed": true,
          "internalType": "address",
          "name": "owner",
          "type": "address"
        },
        {
          "indexed": true,
          "internalType": "address",
          "name": "operator",
          "type": "address"
        },
        {
          "indexed": false,
          "internalType": "bool",
          "name": "approved",
          "type": "bool"
        }
      ],
      "name": "ApprovalForAll",
      "type": "event"
    },
    {
      "anonymous": false,
      "inputs": [
        {
          "indexed": true,
          "internalType": "address",
          "name": "previousOwner",
          "type": "address"
        },
        {
          "indexed": true,
          "internalType": "address",
          "name": "newOwner",
          "type": "address"
        }
      ],
      "name": "OwnershipTransferred",
      "type": "event"
    },
    {
      "anonymous": false,
      "inputs": [
        {
          "indexed": true,
          "internalType": "address",
          "name": "from",
          "type": "address"
        },
        {
          "indexed": true,
          "internalType": "address",
          "name": "to",
          "type": "address"
        },
        {
          "indexed": true,
          "internalType": "uint256",
          "name": "tokenId",
          "type": "uint256"
        }
      ],
      "name": "Transfer",
      "type": "event"
    },
    {
      "inputs": [
        {
          "internalType": "address",
          "name": "to",
          "type": "address"
        },
        {
          "internalType": "uint256",
          "name": "tokenId",
          "type": "uint256"
        }
      ],
      "name": "approve",
      "outputs": [],
      "stateMutability": "nonpayable",
      "type": "function"
    },
    {
      "inputs": [
        {
          "internalType": "address",
          "name": "owner",
          "type": "address"
        }
      ],
      "name": "balanceOf",
      "outputs": [
        {
          "internalType": "uint256",
          "name": "",
          "type": "uint256"
        }
      ],
      "stateMutability": "view",
      "type": "function"
    },
    {
      "inputs": [
        {
          "internalType": "uint256",
          "name": "tokenId",
          "type": "uint256"
        }
      ],
      "name": "getApproved",
      "outputs": [
        {
          "internalType": "address",
          "name": "",
          "type": "address"
        }
      ],
      "stateMutability": "view",
      "type": "function"
    },
    {
      "inputs": [],
      "name": "getDescription",
      "outputs": [
        {
          "internalType": "string",
          "name": "",
          "type": "string"
        }
      ],
      "stateMutability": "view",
      "type": "function"
    },
    {
      "inputs": [],
      "name": "getImage",
      "outputs": [
        {
          "internalType": "string",
          "name": "",
          "type": "string"
        }
      ],
      "stateMutability": "view",
      "type": "function"
    },
    {
      "inputs": [],
      "name": "getMaxMintPerAddress",
      "outputs": [
        {
          "internalType": "uint256",
          "name": "",
          "type": "uint256"
        }
      ],
      "stateMutability": "view",
      "type": "function"
    },
    {
      "inputs": [],
      "name": "getMaxSupply",
      "outputs": [
        {
          "internalType": "uint256",
          "name": "",
          "type": "uint256"
        }
      ],
      "stateMutability": "view",
      "type": "function"
    },
    {
      "inputs": [],
      "name": "getMintPrice",
      "outputs": [
        {
          "internalType": "uint256",
          "name": "",
          "type": "uint256"
        }
      ],
      "stateMutability": "view",
      "type": "function"
    },
    {
      "inputs": [],
      "name": "getMintPriceAddress",
      "outputs": [
        {
          "internalType": "address payable",
          "name": "",
          "type": "address"
        }
      ],
      "stateMutability": "view",
      "type": "function"
    },
    {
      "inputs": [
        {
          "internalType": "address",
          "name": "account",
          "type": "address"
        }
      ],
      "name": "getMintedCount",
      "outputs": [
        {
          "internalType": "uint256",
          "name": "",
          "type": "uint256"
        }
      ],
      "stateMutability": "view",
      "type": "function"
    },
    {
      "inputs": [],
      "name": "getName",
      "outputs": [
        {
          "internalType": "string",
          "name": "",
          "type": "string"
        }
      ],
      "stateMutability": "view",
      "type": "function"
    },
    {
      "inputs": [],
      "name": "getPrompt",
      "outputs": [
        {
          "internalType": "string",
          "name": "",
          "type": "string"
        }
      ],
      "stateMutability": "view",
      "type": "function"
    },
    {
      "inputs": [],
      "name": "getRoyaltyAddress",
      "outputs": [
        {
          "internalType": "address payable",
          "name": "",
          "type": "address"
        }
      ],
      "stateMutability": "view",
      "type": "function"
    },
    {
      "inputs": [],
      "name": "getRoyaltyPercentage",
      "outputs": [
        {
          "internalType": "uint256",
          "name": "",
          "type": "uint256"
        }
      ],
      "stateMutability": "view",
      "type": "function"
    },
    {
      "inputs": [],
      "name": "getSymbol",
      "outputs": [
        {
          "internalType": "string",
          "name": "",
          "type": "string"
        }
      ],
      "stateMutability": "view",
      "type": "function"
    },
    {
      "inputs": [],
      "name": "getTotalSupply",
      "outputs": [
        {
          "internalType": "uint256",
          "name": "",
          "type": "uint256"
        }
      ],
      "stateMutability": "view",
      "type": "function"
    },
    {
      "inputs": [
        {
          "internalType": "address",
          "name": "owner",
          "type": "address"
        },
        {
          "internalType": "address",
          "name": "operator",
          "type": "address"
        }
      ],
      "name": "isApprovedForAll",
      "outputs": [
        {
          "internalType": "bool",
          "name": "",
          "type": "bool"
        }
      ],
      "stateMutability": "view",
      "type": "function"
    },
    {
      "inputs": [
        {
          "internalType": "address",
          "name": "recipient",
          "type": "address"
        },
        {
          "internalType": "string",
          "name": "metadataURI",
          "type": "string"
        }
      ],
      "name": "mint",
      "outputs": [
        {
          "internalType": "uint256",
          "name": "",
          "type": "uint256"
        }
      ],
      "stateMutability": "payable",
      "type": "function"
    },
    {
      "inputs": [],
      "name": "name",
      "outputs": [
        {
          "internalType": "string",
          "name": "",
          "type": "string"
        }
      ],
      "stateMutability": "view",
      "type": "function"
    },
    {
      "inputs": [],
      "name": "owner",
      "outputs": [
        {
          "internalType": "address",
          "name": "",
          "type": "address"
        }
      ],
      "stateMutability": "view",
      "type": "function"
    },
    {
      "inputs": [
        {
          "internalType": "uint256",
          "name": "tokenId",
          "type": "uint256"
        }
      ],
      "name": "ownerOf",
      "outputs": [
        {
          "internalType": "address",
          "name": "",
          "type": "address"
        }
      ],
      "stateMutability": "view",
      "type": "function"
    },
    {
      "inputs": [],
      "name": "renounceOwnership",
      "outputs": [],
      "stateMutability": "nonpayable",
      "type": "function"
    },
    {
      "inputs": [
        {
          "internalType": "address",
          "name": "from",
          "type": "address"
        },
        {
          "internalType": "address",
          "name": "to",
          "type": "address"
        },
        {
          "internalType": "uint256",
          "name": "tokenId",
          "type": "uint256"
        }
      ],
      "name": "safeTransferFrom",
      "outputs": [],
      "stateMutability": "nonpayable",
      "type": "function"
    },
    {
      "inputs": [
        {
          "internalType": "address",
          "name": "from",
          "type": "address"
        },
        {
          "internalType": "address",
          "name": "to",
          "type": "address"
        },
        {
          "internalType": "uint256",
          "name": "tokenId",
          "type": "uint256"
        },
        {
          "internalType": "bytes",
          "name": "data",
          "type": "bytes"
        }
      ],
      "name": "safeTransferFrom",
      "outputs": [],
      "stateMutability": "nonpayable",
      "type": "function"
    },
    {
      "inputs": [
        {
          "internalType": "address",
          "name": "operator",
          "type": "address"
        },
        {
          "internalType": "bool",
          "name": "approved",
          "type": "bool"
        }
      ],
      "name": "setApprovalForAll",
      "outputs": [],
      "stateMutability": "nonpayable",
      "type": "function"
    },
    {
      "inputs": [
        {
          "internalType": "bytes4",
          "name": "interfaceId",
          "type": "bytes4"
        }
      ],
      "name": "supportsInterface",
      "outputs": [
        {
          "internalType": "bool",
          "name": "",
          "type": "bool"
        }
      ],
      "stateMutability": "view",
      "type": "function"
    },
    {
      "inputs": [],
      "name": "symbol",
      "outputs": [
        {
          "internalType": "string",
          "name": "",
          "type": "string"
        }
      ],
      "stateMutability": "view",
      "type": "function"
    },
    {
      "inputs": [
        {
          "internalType": "uint256",
          "name": "index",
          "type": "uint256"
        }
      ],
      "name": "tokenByIndex",
      "outputs": [
        {
          "internalType": "uint256",
          "name": "",
          "type": "uint256"
        }
      ],
      "stateMutability": "view",
      "type": "function"
    },
    {
      "inputs": [
        {
          "internalType": "address",
          "name": "owner",
          "type": "address"
        },
        {
          "internalType": "uint256",
          "name": "index",
          "type": "uint256"
        }
      ],
      "name": "tokenOfOwnerByIndex",
      "outputs": [
        {
          "internalType": "uint256",
          "name": "",
          "type": "uint256"
        }
      ],
      "stateMutability": "view",
      "type": "function"
    },
    {
      "inputs": [
        {
          "internalType": "uint256",
          "name": "tokenId",
          "type": "uint256"
        }
      ],
      "name": "tokenURI",
      "outputs": [
        {
          "internalType": "string",
          "name": "",
          "type": "string"
        }
      ],
      "stateMutability": "view",
      "type": "function"
    },
    {
      "inputs": [],
      "name": "totalSupply",
      "outputs": [
        {
          "internalType": "uint256",
          "name": "",
          "type": "uint256"
        }
      ],
      "stateMutability": "view",
      "type": "function"
    },
    {
      "inputs": [
        {
          "internalType": "address",
          "name": "newOwner",
          "type": "address"
        }
      ],
      "name": "transferContractOwnership",
      "outputs": [],
      "stateMutability": "nonpayable",
      "type": "function"
    },
    {
      "inputs": [
        {
          "internalType": "address",
          "name": "from",
          "type": "address"
        },
        {
          "internalType": "address",
          "name": "to",
          "type": "address"
        },
        {
          "internalType": "uint256",
          "name": "tokenId",
          "type": "uint256"
        }
      ],
      "name": "transferFrom",
      "outputs": [],
      "stateMutability": "nonpayable",
      "type": "function"
    },
    {
      "inputs": [
        {
          "internalType": "address",
          "name": "newOwner",
          "type": "address"
        }
      ],
      "name": "transferOwnership",
      "outputs": [],
      "stateMutability": "nonpayable",
      "type": "function"
    }
  ],
  "bytecode": "0x60806040523480156200001157600080fd5b5060405162004c6138038062004c61833981810160405281019062000037919062000423565b898981600090816200004a9190620007f5565b5080600190816200005c9190620007f5565b5050506200007f620000736200012260201b60201c565b6200012a60201b60201c565b87600d8190555086600e9081620000979190620007f5565b508460109081620000a99190620007f5565b50836012819055508260138190555081601460006101000a81548173ffffffffffffffffffffffffffffffffffffffff021916908373ffffffffffffffffffffffffffffffffffffffff1602179055508060158190555085600f9081620001119190620007f5565b5050505050505050505050620008dc565b600033905090565b6000600b60009054906101000a900473ffffffffffffffffffffffffffffffffffffffff16905081600b60006101000a81548173ffffffffffffffffffffffffffffffffffffffff021916908373ffffffffffffffffffffffffffffffffffffffff1602179055508173ffffffffffffffffffffffffffffffffffffffff168173ffffffffffffffffffffffffffffffffffffffff167f8be0079c531659141344cd1fd0a4f28419497f9722a3daafe3b4186f6b6457e060405160405180910390a35050565b6000604051905090565b600080fd5b600080fd5b600080fd5b600080fd5b6000601f19601f8301169050919050565b7f4e487b7100000000000000000000000000000000000000000000000000000000600052604160045260246000fd5b62000259826200020e565b810181811067ffffffffffffffff821117156200027b576200027a6200021f565b5b80604052505050565b600062000290620001f0565b90506200029e82826200024e565b919050565b600067ffffffffffffffff821115620002c157620002c06200021f565b5b620002cc826200020e565b9050602081019050919050565b60005b83811015620002f9578082015181840152602081019050620002dc565b60008484015250505050565b60006200031c6200031684620002a3565b62000284565b9050828152602081018484840111156200033b576200033a62000209565b5b62000348848285620002d9565b509392505050565b600082601f83011262000368576200036762000204565b5b81516200037a84826020860162000305565b91505092915050565b6000819050919050565b620003988162000383565b8114620003a457600080fd5b50565b600081519050620003b8816200038d565b92915050565b600073ffffffffffffffffffffffffffffffffffffffff82169050919050565b6000620003eb82620003be565b9050919050565b620003fd81620003de565b81146200040957600080fd5b50565b6000815190506200041d81620003f2565b92915050565b6000806000806000806000806000806101408b8d0312156200044a5762000449620001fa565b5b60008b015167ffffffffffffffff8111156200046b576200046a620001ff565b5b620004798d828e0162000350565b9a505060208b015167ffffffffffffffff8111156200049d576200049c620001ff565b5b620004ab8d828e0162000350565b9950506040620004be8d828e01620003a7565b98505060608b015167ffffffffffffffff811115620004e257620004e1620001ff565b5b620004f08d828e0162000350565b97505060808b015167ffffffffffffffff811115620005145762000513620001ff565b5b620005228d828e0162000350565b96505060a08b015167ffffffffffffffff811115620005465762000545620001ff565b5b620005548d828e0162000350565b95505060c0620005678d828e01620003a7565b94505060e06200057a8d828e01620003a7565b9350506101006200058e8d828e016200040c565b925050610120620005a28d828e01620003a7565b9150509295989b9194979a5092959850565b600081519050919050565b7f4e487b7100000000000000000000000000000000000000000000000000000000600052602260045260246000fd5b600060028204905060018216806200060757607f821691505b6020821081036200061d576200061c620005bf565b5b50919050565b60008190508160005260206000209050919050565b60006020601f8301049050919050565b600082821b905092915050565b600060088302620006877fffffffffffffffffffffffffffffffffffffffffffffffffffffffffffffffff8262000648565b62000693868362000648565b95508019841693508086168417925050509392505050565b6000819050919050565b6000620006d6620006d0620006ca8462000383565b620006ab565b62000383565b9050919050565b6000819050919050565b620006f283620006b5565b6200070a6200070182620006dd565b84845462000655565b825550505050565b600090565b6200072162000712565b6200072e818484620006e7565b505050565b5b8181101562000756576200074a60008262000717565b60018101905062000734565b5050565b601f821115620007a5576200076f8162000623565b6200077a8462000638565b810160208510156200078a578190505b620007a2620007998562000638565b83018262000733565b50505b505050565b600082821c905092915050565b6000620007ca60001984600802620007aa565b1980831691505092915050565b6000620007e58383620007b7565b9150826002028217905092915050565b6200080082620005b4565b67ffffffffffffffff8111156200081c576200081b6200021f565b5b620008288254620005ee565b620008358282856200075a565b600060209050601f8311600181146200086d576000841562000858578287015190505b620008648582620007d7565b865550620008d4565b601f1984166200087d8662000623565b60005b82811015620008a75784890151825560018201915060208501945060208101905062000880565b86831015620008c75784890151620008c3601f891682620007b7565b8355505b6001600288020188555050505b505050505050565b61437580620008ec6000396000f3fe6080604052600436106101f95760003560e01c8063715018a61161010d578063c4e41b22116100a0578063e8fec3f41161006f578063e8fec3f414610752578063e985e9c51461077d578063f2fde38b146107ba578063f3651cbb146107e3578063fc5be82f1461080e576101f9565b8063c4e41b221461068f578063c87b56dd146106ba578063cb46edb3146106f7578063d0def52114610722576101f9565b8063a22cb465116100dc578063a22cb465146105e9578063a7f93ebd14610612578063a843c51f1461063d578063b88d4fde14610666576101f9565b8063715018a61461053f5780638da5cb5b1461055657806395d89b411461058157806397d6696b146105ac576101f9565b806323b872dd116101905780634f6ccce71161015f5780634f6ccce71461043257806359c8b7dd1461046f5780636352211e1461049a5780636e3cff39146104d757806370a0823114610502576101f9565b806323b872dd146103785780632f745c59146103a157806342842e0e146103de5780634c0f38c214610407576101f9565b806315070401116101cc57806315070401146102cc57806317d7de7c146102f757806318160ddd146103225780631a0925411461034d576101f9565b806301ffc9a7146101fe57806306fdde031461023b578063081812fc14610266578063095ea7b3146102a3575b600080fd5b34801561020a57600080fd5b5061022560048036038101906102209190612c80565b610839565b6040516102329190612cc8565b60405180910390f35b34801561024757600080fd5b5061025061084b565b60405161025d9190612d73565b60405180910390f35b34801561027257600080fd5b5061028d60048036038101906102889190612dcb565b6108dd565b60405161029a9190612e39565b60405180910390f35b3480156102af57600080fd5b506102ca60048036038101906102c59190612e80565b610923565b005b3480156102d857600080fd5b506102e1610a3a565b6040516102ee9190612d73565b60405180910390f35b34801561030357600080fd5b5061030c610a49565b6040516103199190612d73565b60405180910390f35b34801561032e57600080fd5b50610337610a58565b6040516103449190612ecf565b60405180910390f35b34801561035957600080fd5b50610362610a65565b60405161036f9190612d73565b60405180910390f35b34801561038457600080fd5b5061039f600480360381019061039a9190612eea565b610af7565b005b3480156103ad57600080fd5b506103c860048036038101906103c39190612e80565b610b57565b6040516103d59190612ecf565b60405180910390f35b3480156103ea57600080fd5b5061040560048036038101906104009190612eea565b610bfc565b005b34801561041357600080fd5b5061041c610c1c565b6040516104299190612ecf565b60405180910390f35b34801561043e57600080fd5b5061045960048036038101906104549190612dcb565b610c26565b6040516104669190612ecf565b60405180910390f35b34801561047b57600080fd5b50610484610c97565b6040516104919190612ecf565b60405180910390f35b3480156104a657600080fd5b506104c160048036038101906104bc9190612dcb565b610ca1565b6040516104ce9190612e39565b60405180910390f35b3480156104e357600080fd5b506104ec610d27565b6040516104f99190612f5e565b60405180910390f35b34801561050e57600080fd5b5061052960048036038101906105249190612f79565b610d51565b6040516105369190612ecf565b60405180910390f35b34801561054b57600080fd5b50610554610e08565b005b34801561056257600080fd5b5061056b610e1c565b6040516105789190612e39565b60405180910390f35b34801561058d57600080fd5b50610596610e46565b6040516105a39190612d73565b60405180910390f35b3480156105b857600080fd5b506105d360048036038101906105ce9190612f79565b610ed8565b6040516105e09190612ecf565b60405180910390f35b3480156105f557600080fd5b50610610600480360381019061060b9190612fd2565b610f21565b005b34801561061e57600080fd5b50610627610f37565b6040516106349190612ecf565b60405180910390f35b34801561064957600080fd5b50610664600480360381019061065f9190612f79565b610f41565b005b34801561067257600080fd5b5061068d60048036038101906106889190613147565b610f55565b005b34801561069b57600080fd5b506106a4610fb7565b6040516106b19190612ecf565b60405180910390f35b3480156106c657600080fd5b506106e160048036038101906106dc9190612dcb565b610fc8565b6040516106ee9190612d73565b60405180910390f35b34801561070357600080fd5b5061070c610fda565b6040516107199190612f5e565b60405180910390f35b61073c6004803603810190610737919061326b565b611004565b6040516107499190612ecf565b60405180910390f35b34801561075e57600080fd5b506107676112ba565b6040516107749190612ecf565b60405180910390f35b34801561078957600080fd5b506107a4600480360381019061079f91906132c7565b6112c4565b6040516107b19190612cc8565b60405180910390f35b3480156107c657600080fd5b506107e160048036038101906107dc9190612f79565b611358565b005b3480156107ef57600080fd5b506107f86113db565b6040516108059190612d73565b60405180910390f35b34801561081a57600080fd5b5061082361146d565b6040516108309190612d73565b60405180910390f35b6000610844826114ff565b9050919050565b60606000805461085a90613336565b80601f016020809104026020016040519081016040528092919081815260200182805461088690613336565b80156108d35780601f106108a8576101008083540402835291602001916108d3565b820191906000526020600020905b8154815290600101906020018083116108b657829003601f168201915b5050505050905090565b60006108e882611579565b6004600083815260200190815260200160002060009054906101000a900473ffffffffffffffffffffffffffffffffffffffff169050919050565b600061092e82610ca1565b90508073ffffffffffffffffffffffffffffffffffffffff168373ffffffffffffffffffffffffffffffffffffffff160361099e576040517f08c379a0000000000000000000000000000000000000000000000000000000008152600401610995906133d9565b60405180910390fd5b8073ffffffffffffffffffffffffffffffffffffffff166109bd6115c4565b73ffffffffffffffffffffffffffffffffffffffff1614806109ec57506109eb816109e66115c4565b6112c4565b5b610a2b576040517f08c379a0000000000000000000000000000000000000000000000000000000008152600401610a229061346b565b60405180910390fd5b610a3583836115cc565b505050565b6060610a44610e46565b905090565b6060610a5361084b565b905090565b6000600880549050905090565b6060600e8054610a7490613336565b80601f0160208091040260200160405190810160405280929190818152602001828054610aa090613336565b8015610aed5780601f10610ac257610100808354040283529160200191610aed565b820191906000526020600020905b815481529060010190602001808311610ad057829003601f168201915b5050505050905090565b610b08610b026115c4565b82611685565b610b47576040517f08c379a0000000000000000000000000000000000000000000000000000000008152600401610b3e906134fd565b60405180910390fd5b610b5283838361171a565b505050565b6000610b6283610d51565b8210610ba3576040517f08c379a0000000000000000000000000000000000000000000000000000000008152600401610b9a9061358f565b60405180910390fd5b600660008473ffffffffffffffffffffffffffffffffffffffff1673ffffffffffffffffffffffffffffffffffffffff168152602001908152602001600020600083815260200190815260200160002054905092915050565b610c1783838360405180602001604052806000815250610f55565b505050565b6000600d54905090565b6000610c30610a58565b8210610c71576040517f08c379a0000000000000000000000000000000000000000000000000000000008152600401610c6890613621565b60405180910390fd5b60088281548110610c8557610c84613641565b5b90600052602060002001549050919050565b6000601354905090565b600080610cad83611a13565b9050600073ffffffffffffffffffffffffffffffffffffffff168173ffffffffffffffffffffffffffffffffffffffff1603610d1e576040517f08c379a0000000000000000000000000000000000000000000000000000000008152600401610d15906136bc565b60405180910390fd5b80915050919050565b6000601460009054906101000a900473ffffffffffffffffffffffffffffffffffffffff16905090565b60008073ffffffffffffffffffffffffffffffffffffffff168273ffffffffffffffffffffffffffffffffffffffff1603610dc1576040517f08c379a0000000000000000000000000000000000000000000000000000000008152600401610db89061374e565b60405180910390fd5b600360008373ffffffffffffffffffffffffffffffffffffffff1673ffffffffffffffffffffffffffffffffffffffff168152602001908152602001600020549050919050565b610e10611a50565b610e1a6000611ace565b565b6000600b60009054906101000a900473ffffffffffffffffffffffffffffffffffffffff16905090565b606060018054610e5590613336565b80601f0160208091040260200160405190810160405280929190818152602001828054610e8190613336565b8015610ece5780601f10610ea357610100808354040283529160200191610ece565b820191906000526020600020905b815481529060010190602001808311610eb157829003601f168201915b5050505050905090565b6000601160008373ffffffffffffffffffffffffffffffffffffffff1673ffffffffffffffffffffffffffffffffffffffff168152602001908152602001600020549050919050565b610f33610f2c6115c4565b8383611b94565b5050565b6000601554905090565b610f49611a50565b610f5281611358565b50565b610f66610f606115c4565b83611685565b610fa5576040517f08c379a0000000000000000000000000000000000000000000000000000000008152600401610f9c906134fd565b60405180910390fd5b610fb184848484611d00565b50505050565b6000610fc3600c611d5c565b905090565b6060610fd382611d6a565b9050919050565b6000601660009054906101000a900473ffffffffffffffffffffffffffffffffffffffff16905090565b600080600d5414806110205750600d5461101e600c611d5c565b105b61105f576040517f08c379a0000000000000000000000000000000000000000000000000000000008152600401611056906137ba565b60405180910390fd5b601254601160003373ffffffffffffffffffffffffffffffffffffffff1673ffffffffffffffffffffffffffffffffffffffff16815260200190815260200160002054106110e2576040517f08c379a00000000000000000000000000000000000000000000000000000000081526004016110d990613826565b60405180910390fd5b60006064601354346110f49190613875565b6110fe91906138e6565b9050600066038d7ea4c680006015546111179190613917565b90508034101561115c576040517f08c379a000000000000000000000000000000000000000000000000000000000815260040161115390613997565b60405180910390fd5b600060135411156111d157601460009054906101000a900473ffffffffffffffffffffffffffffffffffffffff1673ffffffffffffffffffffffffffffffffffffffff166108fc839081150290604051600060405180830381858888f193505050501580156111cf573d6000803e3d6000fd5b505b6000601554111561122d576111e4610e1c565b73ffffffffffffffffffffffffffffffffffffffff166108fc6015549081150290604051600060405180830381858888f1935050505015801561122b573d6000803e3d6000fd5b505b611237600c611e7c565b6000611243600c611d5c565b905061124f8682611e92565b6112598186611eb0565b601160003373ffffffffffffffffffffffffffffffffffffffff1673ffffffffffffffffffffffffffffffffffffffff16815260200190815260200160002060008154809291906112a9906139b7565b919050555080935050505092915050565b6000601254905090565b6000600560008473ffffffffffffffffffffffffffffffffffffffff1673ffffffffffffffffffffffffffffffffffffffff16815260200190815260200160002060008373ffffffffffffffffffffffffffffffffffffffff1673ffffffffffffffffffffffffffffffffffffffff16815260200190815260200160002060009054906101000a900460ff16905092915050565b611360611a50565b600073ffffffffffffffffffffffffffffffffffffffff168173ffffffffffffffffffffffffffffffffffffffff16036113cf576040517f08c379a00000000000000000000000000000000000000000000000000000000081526004016113c690613a71565b60405180910390fd5b6113d881611ace565b50565b6060601080546113ea90613336565b80601f016020809104026020016040519081016040528092919081815260200182805461141690613336565b80156114635780601f1061143857610100808354040283529160200191611463565b820191906000526020600020905b81548152906001019060200180831161144657829003601f168201915b5050505050905090565b6060600f805461147c90613336565b80601f01602080910402602001604051908101604052809291908181526020018280546114a890613336565b80156114f55780601f106114ca576101008083540402835291602001916114f5565b820191906000526020600020905b8154815290600101906020018083116114d857829003601f168201915b5050505050905090565b60007f780e9d63000000000000000000000000000000000000000000000000000000007bffffffffffffffffffffffffffffffffffffffffffffffffffffffff1916827bffffffffffffffffffffffffffffffffffffffffffffffffffffffff19161480611572575061157182611f1d565b5b9050919050565b61158281611fff565b6115c1576040517f08c379a00000000000000000000000000000000000000000000000000000000081526004016115b8906136bc565b60405180910390fd5b50565b600033905090565b816004600083815260200190815260200160002060006101000a81548173ffffffffffffffffffffffffffffffffffffffff021916908373ffffffffffffffffffffffffffffffffffffffff160217905550808273ffffffffffffffffffffffffffffffffffffffff1661163f83610ca1565b73ffffffffffffffffffffffffffffffffffffffff167f8c5be1e5ebec7d5bd14f71427d1e84f3dd0314c0f7b2291e5b200ac8c7c3b92560405160405180910390a45050565b60008061169183610ca1565b90508073ffffffffffffffffffffffffffffffffffffffff168473ffffffffffffffffffffffffffffffffffffffff1614806116d357506116d281856112c4565b5b8061171157508373ffffffffffffffffffffffffffffffffffffffff166116f9846108dd565b73ffffffffffffffffffffffffffffffffffffffff16145b91505092915050565b8273ffffffffffffffffffffffffffffffffffffffff1661173a82610ca1565b73ffffffffffffffffffffffffffffffffffffffff1614611790576040517f08c379a000000000000000000000000000000000000000000000000000000000815260040161178790613b03565b60405180910390fd5b600073ffffffffffffffffffffffffffffffffffffffff168273ffffffffffffffffffffffffffffffffffffffff16036117ff576040517f08c379a00000000000000000000000000000000000000000000000000000000081526004016117f690613b95565b60405180910390fd5b61180c8383836001612040565b8273ffffffffffffffffffffffffffffffffffffffff1661182c82610ca1565b73ffffffffffffffffffffffffffffffffffffffff1614611882576040517f08c379a000000000000000000000000000000000000000000000000000000000815260040161187990613b03565b60405180910390fd5b6004600082815260200190815260200160002060006101000a81549073ffffffffffffffffffffffffffffffffffffffff02191690556001600360008573ffffffffffffffffffffffffffffffffffffffff1673ffffffffffffffffffffffffffffffffffffffff168152602001908152602001600020600082825403925050819055506001600360008473ffffffffffffffffffffffffffffffffffffffff1673ffffffffffffffffffffffffffffffffffffffff16815260200190815260200160002060008282540192505081905550816002600083815260200190815260200160002060006101000a81548173ffffffffffffffffffffffffffffffffffffffff021916908373ffffffffffffffffffffffffffffffffffffffff160217905550808273ffffffffffffffffffffffffffffffffffffffff168473ffffffffffffffffffffffffffffffffffffffff167fddf252ad1be2c89b69c2b068fc378daa952ba7f163c4a11628f55a4df523b3ef60405160405180910390a4611a0e8383836001612052565b505050565b60006002600083815260200190815260200160002060009054906101000a900473ffffffffffffffffffffffffffffffffffffffff169050919050565b611a586115c4565b73ffffffffffffffffffffffffffffffffffffffff16611a76610e1c565b73ffffffffffffffffffffffffffffffffffffffff1614611acc576040517f08c379a0000000000000000000000000000000000000000000000000000000008152600401611ac390613c01565b60405180910390fd5b565b6000600b60009054906101000a900473ffffffffffffffffffffffffffffffffffffffff16905081600b60006101000a81548173ffffffffffffffffffffffffffffffffffffffff021916908373ffffffffffffffffffffffffffffffffffffffff1602179055508173ffffffffffffffffffffffffffffffffffffffff168173ffffffffffffffffffffffffffffffffffffffff167f8be0079c531659141344cd1fd0a4f28419497f9722a3daafe3b4186f6b6457e060405160405180910390a35050565b8173ffffffffffffffffffffffffffffffffffffffff168373ffffffffffffffffffffffffffffffffffffffff1603611c02576040517f08c379a0000000000000000000000000000000000000000000000000000000008152600401611bf990613c6d565b60405180910390fd5b80600560008573ffffffffffffffffffffffffffffffffffffffff1673ffffffffffffffffffffffffffffffffffffffff16815260200190815260200160002060008473ffffffffffffffffffffffffffffffffffffffff1673ffffffffffffffffffffffffffffffffffffffff16815260200190815260200160002060006101000a81548160ff0219169083151502179055508173ffffffffffffffffffffffffffffffffffffffff168373ffffffffffffffffffffffffffffffffffffffff167f17307eab39ab6107e8899845ad3d59bd9653f200f220920489ca2b5937696c3183604051611cf39190612cc8565b60405180910390a3505050565b611d0b84848461171a565b611d1784848484612058565b611d56576040517f08c379a0000000000000000000000000000000000000000000000000000000008152600401611d4d90613cff565b60405180910390fd5b50505050565b600081600001549050919050565b6060611d7582611579565b6000600a60008481526020019081526020016000208054611d9590613336565b80601f0160208091040260200160405190810160405280929190818152602001828054611dc190613336565b8015611e0e5780601f10611de357610100808354040283529160200191611e0e565b820191906000526020600020905b815481529060010190602001808311611df157829003601f168201915b505050505090506000611e1f6121df565b90506000815103611e34578192505050611e77565b600082511115611e69578082604051602001611e51929190613d5b565b60405160208183030381529060405292505050611e77565b611e728461221c565b925050505b919050565b6001816000016000828254019250508190555050565b611eac828260405180602001604052806000815250612284565b5050565b611eb982611fff565b611ef8576040517f08c379a0000000000000000000000000000000000000000000000000000000008152600401611eef90613df1565b60405180910390fd5b80600a60008481526020019081526020016000209081611f189190613fbd565b505050565b60007f80ac58cd000000000000000000000000000000000000000000000000000000007bffffffffffffffffffffffffffffffffffffffffffffffffffffffff1916827bffffffffffffffffffffffffffffffffffffffffffffffffffffffff19161480611fe857507f5b5e139f000000000000000000000000000000000000000000000000000000007bffffffffffffffffffffffffffffffffffffffffffffffffffffffff1916827bffffffffffffffffffffffffffffffffffffffffffffffffffffffff1916145b80611ff85750611ff7826122df565b5b9050919050565b60008073ffffffffffffffffffffffffffffffffffffffff1661202183611a13565b73ffffffffffffffffffffffffffffffffffffffff1614159050919050565b61204c84848484612349565b50505050565b50505050565b60006120798473ffffffffffffffffffffffffffffffffffffffff166124a7565b156121d2578373ffffffffffffffffffffffffffffffffffffffff1663150b7a026120a26115c4565b8786866040518563ffffffff1660e01b81526004016120c494939291906140e4565b6020604051808303816000875af192505050801561210057506040513d601f19601f820116820180604052508101906120fd9190614145565b60015b612182573d8060008114612130576040519150601f19603f3d011682016040523d82523d6000602084013e612135565b606091505b50600081510361217a576040517f08c379a000000000000000000000000000000000000000000000000000000000815260040161217190613cff565b60405180910390fd5b805181602001fd5b63150b7a0260e01b7bffffffffffffffffffffffffffffffffffffffffffffffffffffffff1916817bffffffffffffffffffffffffffffffffffffffffffffffffffffffff1916149150506121d7565b600190505b949350505050565b60606040518060400160405280601581526020017f68747470733a2f2f697066732e696f2f697066732f0000000000000000000000815250905090565b606061222782611579565b60006122316121df565b90506000815111612251576040518060200160405280600081525061227c565b8061225b846124ca565b60405160200161226c929190613d5b565b6040516020818303038152906040525b915050919050565b61228e8383612598565b61229b6000848484612058565b6122da576040517f08c379a00000000000000000000000000000000000000000000000000000000081526004016122d190613cff565b60405180910390fd5b505050565b60007f01ffc9a7000000000000000000000000000000000000000000000000000000007bffffffffffffffffffffffffffffffffffffffffffffffffffffffff1916827bffffffffffffffffffffffffffffffffffffffffffffffffffffffff1916149050919050565b612355848484846127b5565b6001811115612399576040517f08c379a0000000000000000000000000000000000000000000000000000000008152600401612390906141e4565b60405180910390fd5b6000829050600073ffffffffffffffffffffffffffffffffffffffff168573ffffffffffffffffffffffffffffffffffffffff16036123e0576123db816127bb565b61241f565b8373ffffffffffffffffffffffffffffffffffffffff168573ffffffffffffffffffffffffffffffffffffffff161461241e5761241d8582612804565b5b5b600073ffffffffffffffffffffffffffffffffffffffff168473ffffffffffffffffffffffffffffffffffffffff16036124615761245c81612971565b6124a0565b8473ffffffffffffffffffffffffffffffffffffffff168473ffffffffffffffffffffffffffffffffffffffff161461249f5761249e8482612a42565b5b5b5050505050565b6000808273ffffffffffffffffffffffffffffffffffffffff163b119050919050565b6060600060016124d984612ac1565b01905060008167ffffffffffffffff8111156124f8576124f761301c565b5b6040519080825280601f01601f19166020018201604052801561252a5781602001600182028036833780820191505090505b509050600082602001820190505b60011561258d578080600190039150507f3031323334353637383961626364656600000000000000000000000000000000600a86061a8153600a8581612581576125806138b7565b5b04945060008503612538575b819350505050919050565b600073ffffffffffffffffffffffffffffffffffffffff168273ffffffffffffffffffffffffffffffffffffffff1603612607576040517f08c379a00000000000000000000000000000000000000000000000000000000081526004016125fe90614250565b60405180910390fd5b61261081611fff565b15612650576040517f08c379a0000000000000000000000000000000000000000000000000000000008152600401612647906142bc565b60405180910390fd5b61265e600083836001612040565b61266781611fff565b156126a7576040517f08c379a000000000000000000000000000000000000000000000000000000000815260040161269e906142bc565b60405180910390fd5b6001600360008473ffffffffffffffffffffffffffffffffffffffff1673ffffffffffffffffffffffffffffffffffffffff16815260200190815260200160002060008282540192505081905550816002600083815260200190815260200160002060006101000a81548173ffffffffffffffffffffffffffffffffffffffff021916908373ffffffffffffffffffffffffffffffffffffffff160217905550808273ffffffffffffffffffffffffffffffffffffffff16600073ffffffffffffffffffffffffffffffffffffffff167fddf252ad1be2c89b69c2b068fc378daa952ba7f163c4a11628f55a4df523b3ef60405160405180910390a46127b1600083836001612052565b5050565b50505050565b6008805490506009600083815260200190815260200160002081905550600881908060018154018082558091505060019003906000526020600020016000909190919091505550565b6000600161281184610d51565b61281b91906142dc565b9050600060076000848152602001908152602001600020549050818114612900576000600660008673ffffffffffffffffffffffffffffffffffffffff1673ffffffffffffffffffffffffffffffffffffffff168152602001908152602001600020600084815260200190815260200160002054905080600660008773ffffffffffffffffffffffffffffffffffffffff1673ffffffffffffffffffffffffffffffffffffffff168152602001908152602001600020600084815260200190815260200160002081905550816007600083815260200190815260200160002081905550505b6007600084815260200190815260200160002060009055600660008573ffffffffffffffffffffffffffffffffffffffff1673ffffffffffffffffffffffffffffffffffffffff16815260200190815260200160002060008381526020019081526020016000206000905550505050565b6000600160088054905061298591906142dc565b90506000600960008481526020019081526020016000205490506000600883815481106129b5576129b4613641565b5b9060005260206000200154905080600883815481106129d7576129d6613641565b5b906000526020600020018190555081600960008381526020019081526020016000208190555060096000858152602001908152602001600020600090556008805480612a2657612a25614310565b5b6001900381819060005260206000200160009055905550505050565b6000612a4d83610d51565b905081600660008573ffffffffffffffffffffffffffffffffffffffff1673ffffffffffffffffffffffffffffffffffffffff168152602001908152602001600020600083815260200190815260200160002081905550806007600084815260200190815260200160002081905550505050565b600080600090507a184f03e93ff9f4daa797ed6e38ed64bf6a1f0100000000000000008310612b1f577a184f03e93ff9f4daa797ed6e38ed64bf6a1f0100000000000000008381612b1557612b146138b7565b5b0492506040810190505b6d04ee2d6d415b85acef81000000008310612b5c576d04ee2d6d415b85acef81000000008381612b5257612b516138b7565b5b0492506020810190505b662386f26fc100008310612b8b57662386f26fc100008381612b8157612b806138b7565b5b0492506010810190505b6305f5e1008310612bb4576305f5e1008381612baa57612ba96138b7565b5b0492506008810190505b6127108310612bd9576127108381612bcf57612bce6138b7565b5b0492506004810190505b60648310612bfc5760648381612bf257612bf16138b7565b5b0492506002810190505b600a8310612c0b576001810190505b80915050919050565b6000604051905090565b600080fd5b600080fd5b60007fffffffff0000000000000000000000000000000000000000000000000000000082169050919050565b612c5d81612c28565b8114612c6857600080fd5b50565b600081359050612c7a81612c54565b92915050565b600060208284031215612c9657612c95612c1e565b5b6000612ca484828501612c6b565b91505092915050565b60008115159050919050565b612cc281612cad565b82525050565b6000602082019050612cdd6000830184612cb9565b92915050565b600081519050919050565b600082825260208201905092915050565b60005b83811015612d1d578082015181840152602081019050612d02565b60008484015250505050565b6000601f19601f8301169050919050565b6000612d4582612ce3565b612d4f8185612cee565b9350612d5f818560208601612cff565b612d6881612d29565b840191505092915050565b60006020820190508181036000830152612d8d8184612d3a565b905092915050565b6000819050919050565b612da881612d95565b8114612db357600080fd5b50565b600081359050612dc581612d9f565b92915050565b600060208284031215612de157612de0612c1e565b5b6000612def84828501612db6565b91505092915050565b600073ffffffffffffffffffffffffffffffffffffffff82169050919050565b6000612e2382612df8565b9050919050565b612e3381612e18565b82525050565b6000602082019050612e4e6000830184612e2a565b92915050565b612e5d81612e18565b8114612e6857600080fd5b50565b600081359050612e7a81612e54565b92915050565b60008060408385031215612e9757612e96612c1e565b5b6000612ea585828601612e6b565b9250506020612eb685828601612db6565b9150509250929050565b612ec981612d95565b82525050565b6000602082019050612ee46000830184612ec0565b92915050565b600080600060608486031215612f0357612f02612c1e565b5b6000612f1186828701612e6b565b9350506020612f2286828701612e6b565b9250506040612f3386828701612db6565b9150509250925092565b6000612f4882612df8565b9050919050565b612f5881612f3d565b82525050565b6000602082019050612f736000830184612f4f565b92915050565b600060208284031215612f8f57612f8e612c1e565b5b6000612f9d84828501612e6b565b91505092915050565b612faf81612cad565b8114612fba57600080fd5b50565b600081359050612fcc81612fa6565b92915050565b60008060408385031215612fe957612fe8612c1e565b5b6000612ff785828601612e6b565b925050602061300885828601612fbd565b9150509250929050565b600080fd5b600080fd5b7f4e487b7100000000000000000000000000000000000000000000000000000000600052604160045260246000fd5b61305482612d29565b810181811067ffffffffffffffff821117156130735761307261301c565b5b80604052505050565b6000613086612c14565b9050613092828261304b565b919050565b600067ffffffffffffffff8211156130b2576130b161301c565b5b6130bb82612d29565b9050602081019050919050565b82818337600083830152505050565b60006130ea6130e584613097565b61307c565b90508281526020810184848401111561310657613105613017565b5b6131118482856130c8565b509392505050565b600082601f83011261312e5761312d613012565b5b813561313e8482602086016130d7565b91505092915050565b6000806000806080858703121561316157613160612c1e565b5b600061316f87828801612e6b565b945050602061318087828801612e6b565b935050604061319187828801612db6565b925050606085013567ffffffffffffffff8111156131b2576131b1612c23565b5b6131be87828801613119565b91505092959194509250565b600067ffffffffffffffff8211156131e5576131e461301c565b5b6131ee82612d29565b9050602081019050919050565b600061320e613209846131ca565b61307c565b90508281526020810184848401111561322a57613229613017565b5b6132358482856130c8565b509392505050565b600082601f83011261325257613251613012565b5b81356132628482602086016131fb565b91505092915050565b6000806040838503121561328257613281612c1e565b5b600061329085828601612e6b565b925050602083013567ffffffffffffffff8111156132b1576132b0612c23565b5b6132bd8582860161323d565b9150509250929050565b600080604083850312156132de576132dd612c1e565b5b60006132ec85828601612e6b565b92505060206132fd85828601612e6b565b9150509250929050565b7f4e487b7100000000000000000000000000000000000000000000000000000000600052602260045260246000fd5b6000600282049050600182168061334e57607f821691505b60208210810361336157613360613307565b5b50919050565b7f4552433732313a20617070726f76616c20746f2063757272656e74206f776e6560008201527f7200000000000000000000000000000000000000000000000000000000000000602082015250565b60006133c3602183612cee565b91506133ce82613367565b604082019050919050565b600060208201905081810360008301526133f2816133b6565b9050919050565b7f4552433732313a20617070726f76652063616c6c6572206973206e6f7420746f60008201527f6b656e206f776e6572206f7220617070726f76656420666f7220616c6c000000602082015250565b6000613455603d83612cee565b9150613460826133f9565b604082019050919050565b6000602082019050818103600083015261348481613448565b9050919050565b7f4552433732313a2063616c6c6572206973206e6f7420746f6b656e206f776e6560008201527f72206f7220617070726f76656400000000000000000000000000000000000000602082015250565b60006134e7602d83612cee565b91506134f28261348b565b604082019050919050565b60006020820190508181036000830152613516816134da565b9050919050565b7f455243373231456e756d657261626c653a206f776e657220696e646578206f7560008201527f74206f6620626f756e6473000000000000000000000000000000000000000000602082015250565b6000613579602b83612cee565b91506135848261351d565b604082019050919050565b600060208201905081810360008301526135a88161356c565b9050919050565b7f455243373231456e756d657261626c653a20676c6f62616c20696e646578206f60008201527f7574206f6620626f756e64730000000000000000000000000000000000000000602082015250565b600061360b602c83612cee565b9150613616826135af565b604082019050919050565b6000602082019050818103600083015261363a816135fe565b9050919050565b7f4e487b7100000000000000000000000000000000000000000000000000000000600052603260045260246000fd5b7f4552433732313a20696e76616c696420746f6b656e2049440000000000000000600082015250565b60006136a6601883612cee565b91506136b182613670565b602082019050919050565b600060208201905081810360008301526136d581613699565b9050919050565b7f4552433732313a2061646472657373207a65726f206973206e6f74206120766160008201527f6c6964206f776e65720000000000000000000000000000000000000000000000602082015250565b6000613738602983612cee565b9150613743826136dc565b604082019050919050565b600060208201905081810360008301526137678161372b565b9050919050565b7f4d6178696d756d20737570706c79207265616368656400000000000000000000600082015250565b60006137a4601683612cee565b91506137af8261376e565b602082019050919050565b600060208201905081810360008301526137d381613797565b9050919050565b7f4d6178696d756d206d696e742070657220616464726573732072656163686564600082015250565b6000613810602083612cee565b915061381b826137da565b602082019050919050565b6000602082019050818103600083015261383f81613803565b9050919050565b7f4e487b7100000000000000000000000000000000000000000000000000000000600052601160045260246000fd5b600061388082612d95565b915061388b83612d95565b925082820261389981612d95565b915082820484148315176138b0576138af613846565b5b5092915050565b7f4e487b7100000000000000000000000000000000000000000000000000000000600052601260045260246000fd5b60006138f182612d95565b91506138fc83612d95565b92508261390c5761390b6138b7565b5b828204905092915050565b600061392282612d95565b915061392d83612d95565b925082820190508082111561394557613944613846565b5b92915050565b7f496e73756666696369656e742062616c616e6365000000000000000000000000600082015250565b6000613981601483612cee565b915061398c8261394b565b602082019050919050565b600060208201905081810360008301526139b081613974565b9050919050565b60006139c282612d95565b91507fffffffffffffffffffffffffffffffffffffffffffffffffffffffffffffffff82036139f4576139f3613846565b5b600182019050919050565b7f4f776e61626c653a206e6577206f776e657220697320746865207a65726f206160008201527f6464726573730000000000000000000000000000000000000000000000000000602082015250565b6000613a5b602683612cee565b9150613a66826139ff565b604082019050919050565b60006020820190508181036000830152613a8a81613a4e565b9050919050565b7f4552433732313a207472616e736665722066726f6d20696e636f72726563742060008201527f6f776e6572000000000000000000000000000000000000000000000000000000602082015250565b6000613aed602583612cee565b9150613af882613a91565b604082019050919050565b60006020820190508181036000830152613b1c81613ae0565b9050919050565b7f4552433732313a207472616e7366657220746f20746865207a65726f2061646460008201527f7265737300000000000000000000000000000000000000000000000000000000602082015250565b6000613b7f602483612cee565b9150613b8a82613b23565b604082019050919050565b60006020820190508181036000830152613bae81613b72565b9050919050565b7f4f776e61626c653a2063616c6c6572206973206e6f7420746865206f776e6572600082015250565b6000613beb602083612cee565b9150613bf682613bb5565b602082019050919050565b60006020820190508181036000830152613c1a81613bde565b9050919050565b7f4552433732313a20617070726f766520746f2063616c6c657200000000000000600082015250565b6000613c57601983612cee565b9150613c6282613c21565b602082019050919050565b60006020820190508181036000830152613c8681613c4a565b9050919050565b7f4552433732313a207472616e7366657220746f206e6f6e20455243373231526560008201527f63656976657220696d706c656d656e7465720000000000000000000000000000602082015250565b6000613ce9603283612cee565b9150613cf482613c8d565b604082019050919050565b60006020820190508181036000830152613d1881613cdc565b9050919050565b600081905092915050565b6000613d3582612ce3565b613d3f8185613d1f565b9350613d4f818560208601612cff565b80840191505092915050565b6000613d678285613d2a565b9150613d738284613d2a565b91508190509392505050565b7f45524337323155524953746f726167653a2055524920736574206f66206e6f6e60008201527f6578697374656e7420746f6b656e000000000000000000000000000000000000602082015250565b6000613ddb602e83612cee565b9150613de682613d7f565b604082019050919050565b60006020820190508181036000830152613e0a81613dce565b9050919050565b60008190508160005260206000209050919050565b60006020601f8301049050919050565b600082821b905092915050565b600060088302613e737fffffffffffffffffffffffffffffffffffffffffffffffffffffffffffffffff82613e36565b613e7d8683613e36565b95508019841693508086168417925050509392505050565b6000819050919050565b6000613eba613eb5613eb084612d95565b613e95565b612d95565b9050919050565b6000819050919050565b613ed483613e9f565b613ee8613ee082613ec1565b848454613e43565b825550505050565b600090565b613efd613ef0565b613f08818484613ecb565b505050565b5b81811015613f2c57613f21600082613ef5565b600181019050613f0e565b5050565b601f821115613f7157613f4281613e11565b613f4b84613e26565b81016020851015613f5a578190505b613f6e613f6685613e26565b830182613f0d565b50505b505050565b600082821c905092915050565b6000613f9460001984600802613f76565b1980831691505092915050565b6000613fad8383613f83565b9150826002028217905092915050565b613fc682612ce3565b67ffffffffffffffff811115613fdf57613fde61301c565b5b613fe98254613336565b613ff4828285613f30565b600060209050601f8311600181146140275760008415614015578287015190505b61401f8582613fa1565b865550614087565b601f19841661403586613e11565b60005b8281101561405d57848901518255600182019150602085019450602081019050614038565b8683101561407a5784890151614076601f891682613f83565b8355505b6001600288020188555050505b505050505050565b600081519050919050565b600082825260208201905092915050565b60006140b68261408f565b6140c0818561409a565b93506140d0818560208601612cff565b6140d981612d29565b840191505092915050565b60006080820190506140f96000830187612e2a565b6141066020830186612e2a565b6141136040830185612ec0565b818103606083015261412581846140ab565b905095945050505050565b60008151905061413f81612c54565b92915050565b60006020828403121561415b5761415a612c1e565b5b600061416984828501614130565b91505092915050565b7f455243373231456e756d657261626c653a20636f6e736563757469766520747260008201527f616e7366657273206e6f7420737570706f727465640000000000000000000000602082015250565b60006141ce603583612cee565b91506141d982614172565b604082019050919050565b600060208201905081810360008301526141fd816141c1565b9050919050565b7f4552433732313a206d696e7420746f20746865207a65726f2061646472657373600082015250565b600061423a602083612cee565b915061424582614204565b602082019050919050565b600060208201905081810360008301526142698161422d565b9050919050565b7f4552433732313a20746f6b656e20616c7265616479206d696e74656400000000600082015250565b60006142a6601c83612cee565b91506142b182614270565b602082019050919050565b600060208201905081810360008301526142d581614299565b9050919050565b60006142e782612d95565b91506142f283612d95565b925082820390508181111561430a57614309613846565b5b92915050565b7f4e487b7100000000000000000000000000000000000000000000000000000000600052603160045260246000fdfea2646970667358221220bdc8a445dcd50b0600c14c2bcd32fccb3d4c450a6f8f5af69638cd7bd9ba656e64736f6c63430008120033",
  "linkReferences": {},
  "deployedLinkReferences": {}
}